:020000040800F2
:1000000000400220D96100089D0C00089F0C0008E8
:1000100000000000000000000000000000000000E0
:10002000000000000000000000000000A10C00081B
:100030000000000000000000A30C0008A50C000850
:100040002962000829620008296200082962000864
:100050002962000829620008296200082962000854
:10006000AD0C000829620008296200082962000816
:100070002962000829620008296200082962000834
:100080002962000829620008296200082962000824
:100090002962000829620008296200082962000814
:1000A000296200082962000829620008BD0C0008C6
:0C00B0002962000829620008296200088B
:1000BC000448054B10B5834203D0044B002B00D0F1
:1000CC00984710BDFC000020FC0000200000000040
:1000DC0006480749091A8B10C90FC91810B54910E1
:1000EC0003D0044B002B00D0984710BDFC0000201F
:1000FC00FC0000200000000010B5074C2378002BFA
:10010C0009D1FFF7D5FF054B002B02D0044800E0C6
:10011C0000BF0123237010BDFC0000200000000074
:10012C002C620008054B10B5002B03D00449054880
:10013C0000E000BFFFF7CCFF10BDC0460000000080
:10014C00000100202C62000870B50D4B0D4D5E1B9C
:10015C00B610AB4205D0002408CD01349847A64216
:10016C00FAD806F05DF8084B084D5E1BB610AB4292
:10017C0005D0002408CD01349847A642FAD870BDAA
:10018C009C6300089C630008A06300089C63000843
:10019C00F0B50500830749D0541E002A45D0030052
:1001AC000326CAB202E00135013C3ED301332A706A
:1001BC003342F8D1032C30D9FF220A401502AD1876
:1001CC002A04AD180F2C34D92700103F3F093E01EB
:1001DC00B4461E001A0010366644156055609560D2
:1001EC00D56010329642F8D101373F01DB190F2749
:1001FC000C22274022403C00002A0ED03E1FB6089D
:10020C00B400A4461A001C1D644420C2A242FCD1B6
:10021C0003240136B6009B193C40002C05D0C9B212
:10022C001C19197001339C42FBD1F0BD0300140062
:10023C00C0E72700E2E7C046F0B505000F2A31D928
:10024C0003273E000D430C0003002E402F4234D1F7
:10025C001500103D2D09AC462F013F1865685D60F7
:10026C00A5689D60E568DD60256810341D601D0083
:10027C001033BD42F2D165460F230C2401352D01FC
:10028C0049191340451914421AD0043B9B080133F9
:10029C009B008C59AC5104369E42FAD10323AD1904
:1002AC0089191A40561E002A06D00023CC5C1A006D
:1002BC00EC5401339642F9D1F0BD0500561EF4E71B
:1002CC001A00EFE7002243088B4274D303098B42D8
:1002DC005FD3030A8B4244D3030B8B4228D3030C0A
:1002EC008B420DD3FF22090212BA030C8B4202D3AC
:1002FC001212090265D0030B8B4219D300E0090AD4
:10030C00C30B8B4201D3CB03C01A5241830B8B42DC
:10031C0001D38B03C01A5241430B8B4201D34B03C5
:10032C00C01A5241030B8B4201D30B03C01A52412A
:10033C00C30A8B4201D3CB02C01A5241830A8B42AF
:10034C0001D38B02C01A5241430A8B4201D34B0298
:10035C00C01A5241030A8B4201D30B02C01A5241FC
:10036C00CDD2C3098B4201D3CB01C01A52418309B0
:10037C008B4201D38B01C01A524143098B4201D3EA
:10038C004B01C01A524103098B4201D30B01C01A15
:10039C005241C3088B4201D3CB00C01A524183088F
:1003AC008B4201D38B00C01A524143088B4201D3BC
:1003BC004B00C01A5241411A00D20146524110461C
:1003CC007047FFE701B5002000F0F0F802BDC04611
:1003DC000029F7D076E7704703460B437FD4002201
:1003EC0043088B4274D303098B425FD3030A8B42BD
:1003FC0044D3030B8B4228D3030C8B420DD3FF2227
:10040C00090212BA030C8B4202D31212090265D0F4
:10041C00030B8B4219D300E0090AC30B8B4201D3A7
:10042C00CB03C01A5241830B8B4201D38B03C01AEE
:10043C005241430B8B4201D34B03C01A5241030B65
:10044C008B4201D30B03C01A5241C30A8B4201D316
:10045C00CB02C01A5241830A8B4201D38B02C01AC1
:10046C005241430A8B4201D34B02C01A5241030A38
:10047C008B4201D30B02C01A5241CDD2C3098B421D
:10048C0001D3CB01C01A524183098B4201D38B019A
:10049C00C01A524143098B4201D34B01C01A52413D
:1004AC0003098B4201D30B01C01A5241C3088B4282
:1004BC0001D3CB00C01A524183088B4201D38B006D
:1004CC00C01A524143088B4201D34B00C01A52410F
:1004DC00411A00D201465241104670475DE0CA0FE6
:1004EC0000D04942031000D34042534000229C46A6
:1004FC0003098B422DD3030A8B4212D3FC228901B0
:10050C0012BA030A8B420CD3890192118B4208D385
:10051C00890192118B4204D389013AD0921100E0E7
:10052C008909C3098B4201D3CB01C01A52418309FB
:10053C008B4201D38B01C01A524143098B4201D328
:10054C004B01C01A524103098B4201D30B01C01A53
:10055C005241C3088B4201D3CB00C01A52418308CD
:10056C008B4201D38B00C01A5241D9D243088B4223
:10057C0001D34B00C01A5241411A00D201466346C6
:10058C0052415B10104601D34042002B00D549422A
:10059C00704763465B1000D3404201B5002000F069
:1005AC0005F802BD0029F8D016E770477047C04621
:1005BC00002B11D1002A0FD1002900D1002802D024
:1005CC000021C943080007B4024802A14018029058
:1005DC0003BDC046D9FFFFFF03B4684601B50298BE
:1005EC0000F006F8019B9E4602B00CBC7047C0465A
:1005FC00F0B557464E464546DE46E0B504000D00C4
:10060C009246994683B08B4230D82DD049465046FD
:10061C0000F0BAF829000600200000F0B5F8331AF3
:10062C009846203B34D49B4653465A469340424608
:10063C001F00534693401E00AF423BD8AF4200D13F
:10064C0079E05B46A41BBD41002B00DA76E000226A
:10065C0000230092019301235A46934001930123F6
:10066C0042469340009329E08242CFD900220023D6
:10067C00009201930C9B002B01D01C605D600098D4
:10068C00019903B0F0BCBB46B246A946A046F0BDEA
:10069C0042469B4620239B1A5246DA4041461300A1
:1006AC004A468A40170042461F43534693401E0059
:1006BC00AF42C3D900220023009201934346002B82
:1006CC00D8D0FB0772081A4346467B080EE0AB42B3
:1006DC0001D1A2420CD8A41A9D41012024196D41CC
:1006EC000021013E24184D41002E06D0AB42EED91C
:1006FC00013E24196D41002EF8D1009801995B46FA
:10070C0000196941002B24DB2B005A464446D34088
:10071C002A00E2401C005B461500002B2ADB260059
:10072C009E40330026004746BE403200801A994155
:10073C00009001919EE7A342BCD882E74246202359
:10074C0000219B1A0022009101920122DA400192B1
:10075C0085E7424620239B1A2A0046469A402300EE
:10076C00F340444613432A00E2401C005B4615004C
:10077C00002BD4DA42462F002023260097409B1AE8
:10078C00DE403B003343CDE710B5002903D100F028
:10079C0007F8203002E0080000F002F810BDC04657
:1007AC001C2101231B04984201D3000C10391B0A95
:1007BC00984201D3000A08391B09984201D3000959
:1007CC00043902A2105C40187047C04604030202B0
:1007DC0001010101000000000000000082B0094B83
:1007EC00596B012211435963596B0A400092009ACC
:1007FC00596B0222114359635B6B1A400192019BA6
:10080C0002B070470010024000B585B000293FD0FF
:10081C000378012B06D0022B1ED002ABFF221A70DC
:10082C00012132E0022933D9427883781202134332
:10083C00184A12889B188022D200934200D3164B80
:10084C009BB21548C01A80B20022C82100F0FCF9F6
:10085C0002AB1870012118E000236A46D380901D6A
:10086C0000F00CFA6B46DB880A4A12889B1A05D4F6
:10087C008022D200934202DB074B00E0002302AA45
:10088C001070191251709370032102A802F0EAFA49
:10089C0005B000BD18010020FF03000072B6FEE792
:1008AC0000B589B01022002104A8FFF771FC0C22BE
:1008BC00002101A8FFF76CFC1548164B0360E023E0
:1008CC00FF33436000238360FF22C26003614361F6
:1008DC00836100F037FB002814D180235B01049363
:1008EC000B4804A900F06AFB00280DD100230193EA
:1008FC0002930393064801A900F0E4FB002805D1FC
:10090C0009B000BDFFF7CAFFFFF7C8FFFFF7C6FF2E
:10091C00B0010020002C014010B51948194B0360A0
:10092C00194B436000238360C36003610C22426156
:10093C008361C361036243621033836280235B0172
:10094C00C36302F0BFF8002811D10D48002102F05A
:10095C0043F900280DD10A48002102F063F9002860
:10096C0009D1074802F018F9002806D110BDFFF78D
:10097C0095FFFFF793FFFFF791FFFFF78FFFC0463F
:10098C001C0100200038014040420F0000B595B01A
:10099C003C22002105A8FFF7FBFB1022002101A837
:1009AC00FFF7F6FB8020800001F058FA2223059314
:1009BC00DE3308938023DB030C930023099340223E
:1009CC000A923E3A0D920E920F930F33109380239E
:1009DC009B02119380239B041293C023DB0513937A
:1009EC0005A800F0B5FB00280ED107230193053BA9
:1009FC000293002303930493022101A800F090FEBC
:100A0C00002803D115B000BDFFF748FFFFF746FFE4
:100A1C0000B583B001F0D8FAFFF7B8FFFFF7DEFEA0
:100A2C00FFF73EFFFFF778FF02F026F9012000F0F8
:100A3C0005F9642001F0EEFA6B460022DA806B4671
:100A4C00981D00F01BF9002803D0642001F0E2FA95
:100A5C00F5E7034B6A46063212881A80FEE7C04659
:100A6C0018010020F8B507000E000E4B1B680F2272
:100A7C001A6201F0C9FA323004000025B5420FD2D7
:100A8C00084B1A68D3699B0605D401F0BDFAA04245
:100A9C00F6D30620F8BD536A7B550135EDB2EDE770
:100AAC000020F7E71C010020F0B5D6464F4646461D
:100ABC00C0B592B080460F0016001D001AAB1B7813
:100ACC009A46402D6CD8002A23D0EB1CDBB29946F9
:100ADC004C464444E4B25444E4B2E419E4B2462231
:100AEC0000216846FFF754FBFF236A4613705370CE
:100AFC006B4642469A704A46DA7052461A715F71DA
:100B0C00002E10D02A003100981DFFF795FB002015
:100B1C0007E003239946DBE7315C0C19E4B20130A2
:100B2C00C0B2A842F8D3AB1DE4436A46D4541D4866
:100B3C0003680F221A629A6908210A439A6101F02C
:100B4C0071FC0735EDB201F05FFA3230040000267B
:100B5C00AE4215D2134B1A68D3691B060AD401F0A6
:100B6C0053FAA042F6D3052012B0E0BCBA46B14607
:100B7C00A846F0BD6B469B5D93620136F6B2E7E783
:100B8C00084B1B68DB695B0605D401F03DFAA042FB
:100B9C00F6D30520E8E7034801F06DFC0020E3E7FD
:100BAC000520E1E71C01002030B587B004001500DA
:100BBC0017226A44022313700093013BFFF774FF62
:100BCC0000282CD1082103A8FFF74CFF002829D1BD
:100BDC0003AB1B78FF2B27D103AB5B78FF2B25D105
:100BEC0003AB9B78A34201D0FE2C21D103AAD2786F
:100BFC00042A1FD19B18DBB203AA11795B18DBB254
:100C0C0054791B19DBB291795B18DBB2DB43DBB295
:100C1C00D2799A4210D124022143298000E0052088
:100C2C0007B030BD0620FBE70120F9E70120F7E70C
:100C3C000320F5E70420F3E70220F1E7014B1870DD
:100C4C00002070470000002010B584B0130002AAE9
:100C5C00040A14705070080A9070D170190A11713E
:100C6C005371054B18780323009303332A21FFF7A4
:100C7C001BFF04B010BDC0460000002010B50200E0
:100C8C00024B18783821FFF78FFF10BD00000020B1
:100C9C00FEE7FEE77047704710B501F0A9F910BDEB
:100CAC0010B5024803F074F810BDC046FC180020C3
:100CBC0010B5024801F01CFA10BDC0461C01002002
:100CCC0000B583B00B4B196C012211431964196CDC
:100CDC000A400092009ADA6B802149050A43DA63D4
:100CEC00DB6B0B400193019B8020800001F0A4F989
:100CFC0003B000BD0010024010B594B004004C22AB
:100D0C00002101A8FFF744FA22680D4B9A4201D04A
:100D1C0014B010BD80239B03019301A800F0E0FDEB
:100D2C0000280AD1074B1A6C802109010A431A6466
:100D3C001B6C0B400093009BEAE7FFF7AFFDF1E75C
:100D4C00002C01400010024010B59AB0040014228F
:100D5C00002115A8FFF71CFA4C22002102A8FFF76E
:100D6C0017FA22681B4B9A4201D01AB010BD01230E
:100D7C00029302A800F0B4FD002827D1164B1A6C80
:100D8C008021C9010A431A641A6C0A400092009A25
:100D9C00596B0222114359635B6B1A400192019B00
:100DAC00402315932E3B169300231793032218927E
:100DBC00199315A9094800F011FF002201211B20ED
:100DCC0001F0C2F81B2001F0C3F8CEE7FFF766FD77
:100DDC00D4E7C04600380140001002400004005027
:100DEC0030B50B00016A046A0125AC4304620D4C5A
:100DFC00A04208D00C4CA04205D00C4CA04202D012
:100E0C000B4CA04203D1046A0425AC4304628469F0
:100E1C00F025AC43120122430A24A14319438261F9
:100E2C00016230BD002C01400040014000440140F3
:100E3C000048014030B5036A046A1025AC430462D3
:100E4C00094CA0420BD08469084D2C40120322435C
:100E5C00A024A343090119438261016230BD046AD5
:100E6C003035AC430462EEE7002C0140FF0FFFFF6E
:100E7C008368034A13400B43072213438360704774
:100E8C008FFFCFFF0368274A904209D08022D205FA
:100E9C00904205D0244A904202D0244A904203D179
:100EAC00702293434A6813431E4A904215D0802205
:100EBC00D205904211D01C4A90420ED01B4A90424F
:100ECC000BD01B4A904208D01A4A904205D01A4ABD
:100EDC00904202D0194A904203D1194A1A40CB6869
:100EEC001343802293434A6913438A68C2620A6897
:100EFC0082620C4A904208D00E4A904205D00E4AAB
:100F0C00904202D00D4A904201D10A6902630268F4
:100F1C0004210A43026001224261BFF34F8F036038
:100F2C007047C046002C01400004004000080040FF
:100F3C0000200040004001400044014000480140B6
:100F4C00FFFCFFFF70B5041E2AD03D23C35C002BB1
:100F5C0020D03D2502236355210001C9FFF792FFE4
:100F6C0001234822A3540A3AA3540132A354013258
:100F7C00A3540132A3540132A3540132A3540132BD
:100F8C00A3540132A3540132A3540132A354635528
:100F9C00002070BD3C330022C254FFF7ADFED8E7F1
:100FAC000120F6E730B58468034D2C401B02134337
:100FBC000B432343836030BDFF00FFFF10B50400DB
:100FCC000B003C22825C012A00D177E03C220121FB
:100FDC00815401320131815401688A6838480240D9
:100FEC008A60196860294FD023D8402957D011D86E
:100FFC00202904D00AD8002901D0102904D1206856
:10100C00FFF736FF00202AE0012028E03029F6D037
:10101C00012024E050290AD15968DA682068FFF7CA
:10102C00DFFE20685021FFF723FF002017E001208E
:10103C0015E08022520191423CD0802292019142D3
:10104C0014D0702938D199685A68DB682068FFF78A
:10105C00A9FF2268936877210B43936000203D23FE
:10106C000122E254013B0022E25410BD99685A68F7
:10107C00DB682068FFF796FF226891688023DB010C
:10108C000B4393600020EAE75968DA682068FFF7A1
:10109C00D1FE20686021FFF7EBFE0020DFE75968E6
:1010AC00DA682068FFF79CFE20684021FFF7E0FE1D
:1010BC000020D4E70020D2E70120D0E70220D4E7BB
:1010CC008800CEFF30B53C23C35C012B33D03C23CE
:1010DC000122C25401330132C2540268536895682C
:1010EC00164CA24222D07024A3430C6823435360B5
:1010FC000368124A93420CD08022D205934208D046
:10110C000F4A934205D00F4A934202D00E4A9342A3
:10111C0004D1802295438A682A439A603D23012298
:10112C00C254013B0022C254002030BD074C234066
:10113C004C682343D7E70220F7E7C046002C014058
:10114C00000400400008004000400140FFFF0FFF7A
:10115C0070B582B0041E00D15EE20368DB0739D59E
:10116C00C14A916838230B40D16803220A40102BE6
:10117C0026D0082B26D063688022520293427FD05F
:10118C00A022D202934200D181E0B74B1A68B74932
:10119C000A401A601A68B6490A401A606368002B44
:1011AC0000D180E000F030FF0500AF4B1B689B03C3
:1011BC0010D400F029FF401B6428F6D903202CE240
:1011CC00032AD6D1A84B1B689B0303D56368002B5D
:1011DC0000D124E223689B0731D5A34A91683823B8
:1011EC000B40D16803220A40102B6AD0002B6BD124
:1011FC009D4A1268520503D5E268002A00D110E21C
:10120C00994842689B490A40616909020A43426055
:10121C00002B0DD1036898490B4021690B430360E7
:10122C000368DB0A07221A40944BD340944A13609C
:10123C00944B186800F09CFE002800D0F3E1236862
:10124C001B0700D481E0884B9A6838231340182B75
:10125C0073D0A369002B00D1B4E0834A136E012133
:10126C000B43136600F0D0FE05007F4B1B6E9B07F3
:10127C006BD400F0C9FE401B0228F6D90320CCE148
:10128C00794A116880235B020B43136086E7764B27
:10129C0019688022D2020A431A601968802252020D
:1012AC000A431A607AE700F0AFFE05006E4B1B682C
:1012BC009B038FD500F0A8FE401B6428F6D90320B1
:1012CC00ABE1022A92D193E7E368002B22D0664A65
:1012DC00136869490B4021690B4313601168802323
:1012EC005B000B43136000F08FFE05005E4B1B6828
:1012FC005B0506D400F088FE401B0228F6D90320BB
:10130C008BE159494B685B4A1340626912021343E3
:10131C004B6094E7544A13685B490B40136000F030
:10132C0073FE0500504B1B685B0588D500F06CFE06
:10133C00401B0228F6D903206FE14B4B1B6E9B0719
:10134C0003D5A369002B00D16FE123685B0700D4A0
:10135C00A2E0454B9A6838231340202B45D0424BD2
:10136C00DB6BDB004AD4404BDA6B802149050A4326
:10137C00DA63DB6B0B400193019B0125434B1B682C
:10138C00DB053DD5A368012B4ED0052B52D0364B37
:10139C00DA6D01218A43DA65DA6D03318A43DA6545
:1013AC00A368002B50D000F02FFE06002E4BDB6DF7
:1013BC009B076FD400F028FE801B354B9842F5D963
:1013CC0003202AE1284A136E01218B43136600F097
:1013DC001BFE0500244B1B6E9B07B6D500F014FEBC
:1013EC00401B0228F6D9032017E11F4BDB6D9B072E
:1013FC0052D5A368002B4FD101200EE10025BDE78B
:10140C00224A116880235B000B43136000F0FCFD43
:10141C0006001E4B1B68DB05B4D400F0F5FD801BE9
:10142C000228F6D90320F8E00F4AD36D01210B43B3
:10143C00D365B5E70C4BDA6D04210A43DA65DA6D36
:10144C0003390A43DA65ABE700F0DEFD0600064B14
:10145C00DB6D9B071ED500F0D7FD801B0C4B984213
:10146C00F5D90320D9E0C04600100240FFFFFEFF73
:10147C00FFFFFBFFFF80FFFFFFC7FFFF0024F4000F
:10148C000800002004000020FFFEFFFF0070004059
:10149C0088130000012D19D023689B062FD5E36912
:1014AC00002B19D06A4A11688023DB030B431360AD
:1014BC0000F0AAFD0500664B1B681B021FD400F050
:1014CC00A3FD401B0228F6D90320A6E0604AD36B8B
:1014DC0060490B40D363DFE75D4A13685E490B40FC
:1014EC00136000F091FD0500594B1B681B0206D5DB
:1014FC0000F08AFD401B0228F6D903208DE0236AF8
:10150C00002B00D193E0524A916838220A40102AED
:10151C005AD0022B12D04E4A136850490B4013601C
:10152C0000F072FD04004A4B1B689B0145D500F08E
:10153C006BFD001B0228F6D903206EE0444A1368A9
:10154C0046490B40136000F05FFD0500404B1B68E3
:10155C009B0106D500F058FD401B0228F6D903204C
:10156C005BE03B4AD3683E491940636AA06A034377
:10157C00E06A00020343206B0343606B0343A06BE0
:10158C0003430B43D360116880235B040B4313604C
:10159C00D16880235B050B43D36000F035FD04005C
:1015AC002B4B1B689B0106D400F02EFD001B022860
:1015BC00F6D9032031E000202FE0254AD3682949D1
:1015CC000B40D360002028E0012B32D0204BDA688E
:1015DC0003231340616A8B422DD170231340A16AFF
:1015EC008B422AD1FE21C9011140E36A1B029942A8
:1015FC0025D1F8239B031340216B8B4221D1E0238F
:10160C001B051340616B8B421DD1520F5207A36B0C
:10161C009A421AD1002000E0012002B070BD0120D6
:10162C00FBE70120F9E70120F7E70120F5E70020AF
:10163C00F3E70120F1E70120EFE70120EDE70120BE
:10164C00EBE70120E9E70120E7E70120E5E7C046E9
:10165C0000100240FFFFFFEFFFFFBFFFFFFFFFFE89
:10166C008C80C111FCFFFEEE10B52A4B9B68382212
:10167C001A4207D1274B1A68D20A0723134026486F
:10168C00D84010BD234B9A6838231340082B3BD00D
:10169C00204B9A6838231340102B0DD01D4B9A68A1
:1016AC0038231340202B31D01A4B9A68382313401F
:1016BC00182B26D00020E4E7164AD1680D3B0B40CE
:1016CC00D2681209072111400131032B0FD01248A7
:1016DC00FEF7F8FD0F4BDA68120A7F2313405843CC
:1016EC000C4BD968490F0131FEF7ECFDC9E70B48EB
:1016FC00FEF7E8FD074BDA68120A7F2313405843C4
:10170C00EEE7FA20C001BCE70448BAE780200002EB
:10171C00B7E7C046001002400024F40000127A0023
:10172C0070B504000D00002800D1AAE0574B1A68D0
:10173C00072313408B4221D323689A070ED55B07EE
:10174C0005D5534A9168E023DB010B439360504A63
:10175C00936850490B40A1680B4393602368DB07E7
:10176C0054D56368012B20D0022B3BD0002B3FD1EA
:10177C00474A126852051CD401206AE0434A136898
:10178C0007218B432B43136000F03EFC06003F4BBC
:10179C001A6807231340AB42CED000F035FC801BF7
:1017AC003D4A9042F3D9032053E0394A1268920320
:1017BC0069D537498A680720824313438B6000F050
:1017CC0023FC0600324B9B6838221A406368DB000E
:1017DC009A421BD000F018FC801B2F4B9842F1D979
:1017EC00032036E02A4A12689201E2D4012030E04C
:1017FC00032B05D0264AD26D9207DAD4012028E0BB
:10180C00234A126E9207D4D4012022E01F4B1A688F
:10181C0007231340AB421DD823685B0706D51C4A2F
:10182C0093681E490B40E1680B439360FFF71CFF64
:10183C00174B9A68120A0F231340194A9B009A58A7
:10184C001F231340D840174B1860174B186800F033
:10185C008FFB70BD0D4A136807218B432B4313601C
:10186C0000F0D2FB0600094B1A6807231340AB4269
:10187C00D2D000F0C9FB801B074B9842F3D9032050
:10188C00E7E70120E5E70120E3E7C046002002403E
:10189C0000100240FFF0FFFF88130000FF8FFFFFD6
:1018AC008C6200080800002004000020014B18681E
:1018BC007047C0460800002010B5FFF7F7FF064B35
:1018CC009A68120B07231340044A9B009A581F2353
:1018DC001340D84010BDC046001002406C62000896
:1018EC00F0B583B0040003689B0362D5AE4BDB6B91
:1018FC00DB001ED4AC4BDA6B802149050A43DA635A
:10190C00DB6B0B400193019B0126A84A11688023D5
:10191C005B000B43136000F077FB0500A34B1B68C7
:10192C00DB0508D400F070FB401B0228F6D9032518
:10193C0002E00026E9E70025002D23D19A4BD96D52
:10194C00C02292000B001340114210D0226C9A421C
:10195C000DD0954AD36D96490B40D06D802149022C
:10196C000143D165D16D93480140D165D365DB0747
:10197C0010D4002D06D18C4AD36D8D490B40216CAF
:10198C000B43D365012E15D1874AD36B8A490B4083
:10199C00D3630FE000F038FB0700834BDB6D9B0734
:1019AC00E7D400F031FBC01B844B9842F5D90325DA
:1019BC00DFE700252368DB0706D57B4A536D03213F
:1019CC008B4361680B43536523689B0706D5764AA6
:1019DC00536D0C218B43A1680B43536523685B0744
:1019EC0006D5714A536D30218B43E1680B43536527
:1019FC002368DB0606D56C4A536D71490B4021698F
:101A0C000B4353652368DB0406D5674A536D68495D
:101A1C000B4061690B43536523689B0506D5624AED
:101A2C00536D68490B40A16A0B43536523685B05F2
:101A3C0006D55D4A536D64490B40E16A0B4353650F
:101A4C0023689B0606D5584A536D60490B40A16923
:101A5C000B43536523685B0606D5534A536D5C49AB
:101A6C000B40E1690B43536523685B040BD54E4A6D
:101A7C00536D9B009B08216B0B435365226B80239A
:101A8C00DB059A4262D023681B0306D5464A536D88
:101A9C0040218B43616B0B43536523689B020BD531
:101AAC00414A536D4B490B40A16B0B435365A26BE1
:101ABC008023DB039A4250D023685B020BD53A4A51
:101ACC00536D45490B40E16B0B435365E26B80232F
:101ADC005B049A4248D023681B0509D5324A936DA2
:101AEC0003218B43216A0B439365236A012B40D05E
:101AFC0023689B0409D52C4A936D0C218B43616A96
:101B0C000B439365636A042B39D02368DB010BD537
:101B1C00254A936D2D490B40616C0B439365626CA8
:101B2C0080239B019A4230D023689B010BD51E4A1F
:101B3C00936D1F490B40A16C0B439365A26C8023E2
:101B4C005B009A4228D0280003B0F0BD164AD16839
:101B5C0080235B020B43D36095E7134AD168802343
:101B6C005B040B43D360A7E70F4AD1680B43D360E8
:101B7C00B1E7D16880235B020B43D360B8E7D1682F
:101B8C0080235B020B43D360BFE7074AD1688023F5
:101B9C005B040B43D360C7E7034AD16880235B0423
:101BAC000B43D360CFE7C0460010024000700040EA
:101BBC00FFFCFFFFFFFFFEFFFFFFFFEF881300009E
:101BCC00FFF3FFFFFFFFF3FFFFFFCFFFFFCFFFFF91
:101BDC00FF3FFFFFFFFFBFFFFFFFFFFEF0B500233E
:101BEC0059E086685F000324BC40A643CC68BC4027
:101BFC0034438460446894434E6836090122324071
:101C0C009A402243426056E0DE080836B600375848
:101C1C0005321A4092000F249440A7430C6994405B
:101C2C0022003A43325059E0042600E00026A64038
:101C3C0034003C43444E1832920094513768EA43C6
:101C4C003E00AE434C68E40201D53E002E433E4CB0
:101C5C00266067683E0016404C68A40201D53E0021
:101C6C002E43394C66608426A7593E0016404C68BA
:101C7C00A40301D53E002E43334C8427E651802625
:101C8C00A65932404C68E40301D52A0032432E4D4C
:101C9C0080242A5101330C682200DA4053D00122EF
:101CAC009A40250015401442F4D04E680324344069
:101CBC00013C012C95D94C6803222240032A08D000
:101CCC00C4685E000322B24094438A68B240224347
:101CDC00C2604C6803222240022A95D004685E0040
:101CEC0003221700B740BC434F683A40B24022432E
:101CFC0002604C68C02292021442CBD09A081400A5
:101D0C001834A400104EA75903241C40E4000F26DD
:101D1C00A640B743A026F605B04287D00B4EB04282
:101D2C000BD00B4EB0420AD00A4EB04209D00A4E2C
:101D3C00B04200D178E7052679E7012677E702263D
:101D4C0075E7032673E7F0BD00180240000400504D
:101D5C0000080050000C00500010005010B5002876
:101D6C0033D02523C35C022B06D00423C36320335A
:101D7C000022C254012010BD01680A6801239A4355
:101D8C000A6001680A680E24A2430A60816C0A6822
:101D9C000F4C22400A60416C1C220A40016C93409B
:101DAC004B60C36C026D5A60436D002B05D01A68F2
:101DBC0022401A60836DC26D5A6025230122C254E1
:101DCC00013B0022C2540020D5E70120D3E7C046D6
:101DDC00FFFEFFFF10B52523C35C022B03D00423A9
:101DEC00C363012010BD01680A6801239A430A608D
:101DFC0001680A680E24A2430A60816C0A68114CBF
:101E0C0022400A60416C1C220A40016C93404B60DA
:101E1C00C36C026D5A60436D002B05D01A682240CA
:101E2C001A60836DC26D5A6025230122C254013B96
:101E3C000022C254836B002B02D098470020D1E7BC
:101E4C000020CFE7FFFEFFFF034A51688023DB0031
:101E5C000B4353607047C0460070004010B5104AE9
:101E6C00136810490B400343136080239B00984276
:101E7C0001D0002010BD0C4B1B685800C01840004E
:101E8C000A49FEF71FFA0130054B5B695B0503D568
:101E9C00002803D00138F7E70020EBE70320E9E73F
:101EAC0000700040FFF9FFFF0800002040420F00C7
:101EBC0070B5002811DB8308134DC0339B005C59AF
:101ECC0003221040C000FC3216008640B443890146
:101EDC000A40824022435A5170BD0F230340083BF5
:101EEC009B0806339B00094A944663445C680322B2
:101EFC001040C000FC3215008540AC4389010A40FB
:101F0C00824022435A60E7E700E100E000ED00E088
:101F1C00013880235B0498420FD2094A506009486B
:101F2C00036A1B021B0AC02109060B430362002330
:101F3C00936007331360002070470120FCE7C04614
:101F4C0010E000E000ED00E010B5FFF7B1FF10BDB0
:101F5C00002805DB1F22024001239340014A136035
:101F6C007047C04600E100E010B5FFF7D1FF10BD8F
:101F7C0010B50400114B1978002901D1012010BDB6
:101F8C00FA208000FEF79EF901000D4B1868FEF751
:101F9C0099F9FFF7E9FF00280DD1032C01D9012095
:101FAC00EDE70130002221004042FFF7CDFF054B49
:101FBC001C600020E3E70120E1E7C046010000209F
:101FCC00080000200400002010B5084A1168802386
:101FDC005B000B4313600320FFF7CAFF041E02D003
:101FEC000124200010BDFEF76BFEFAE70020024032
:101FFC00034B1B78034A11685B1813607047C0468B
:10200C0001000020FC010020014B18687047C046FD
:10201C00FC01002070B50400FFF7F6FF0500631CFF
:10202C0002D0044B1B78E418FFF7EEFF401BA042D4
:10203C00FAD370BD01000020034A136803490B401A
:10204C00034313607047C04600000140FFF9FFFFD7
:10205C0030B5EFF31084012282F3108801680B680D
:10206C00124D2B400B6084F31088EFF3108182F338
:10207C001088026893680E4C2340936081F310889B
:10208C00C36E012B06D08C232022C2500023C366C2
:10209C00436730BDEFF3108183F310880268136837
:1020AC001024A343136081F31088ECE7DFFEFFFFDD
:1020BC00FEFFFFEF704710B5EFF31081012383F3A0
:1020CC001088026813684024A343136081F31088BE
:1020DC0088232022C25000238367FFF7EBFF10BD3B
:1020EC00704710B5806AFFF7FBFF10BD704700000A
:1020FC00F8B504000268D36910689168BE4D2B4294
:10210C000BD19D0611D5850601D4CD000DD5636F7D
:10211C00002B2AD02000984727E0B84D0E002E4007
:10212C00294223D1B64D284220D1E56E012D00D194
:10213C00A4E0DD0202D54D0200D54AE11A0605D510
:10214C00020600D54CE1090200D549E15A0602D538
:10215C00420600D54BE11A0202D5420000D559E1E6
:10216C00DB0102D5002800DA58E1F8BDDD0707D500
:10217C00C50505D501271762902562593A4362516E
:10218C009A0709D5CA0707D52268022515628E352C
:10219C00625904273A4362515A0709D5CA0707D531
:1021AC002268042515628C35625902273A43625124
:1021BC001A070AD5820601D4002E06D022680826FA
:1021CC00166290256259324362511A050AD54201B2
:1021DC0008D5226880252D0115629025625920268C
:1021EC00324362519022A258002ABED09B0608D5D9
:1021FC00800601D4C90004D5636F002B01D02000E8
:10220C0098479023E25823689B685B0602D42823E6
:10221C0013422CD02000FFF71BFF23689B685B0642
:10222C0021D5EFF31081012383F310882268936882
:10223C0040208343936081F310888023E358002B64
:10224C000DD0704A9A638023E058FFF7C3FD002835
:10225C0000D18AE78023E058836B984785E72000FC
:10226C00FFF73EFF81E72000FFF73AFF7DE72000F4
:10227C00FFF736FF90230022E25076E7DD0600D40C
:10228C0057E7C50600D454E71023136223689B68F4
:10229C005B0662D58023E1580A6853689BB2002B19
:1022AC004CD05C20205A984248D95E22A3520B682D
:1022BC001B689B060BD5022323675A33E15A023362
:1022CC00E35AC91A89B22000FFF710FF4DE7EFF36C
:1022DC001080012383F3108821680A684A4D2A4034
:1022EC000A6080F31088EFF3108083F31088216864
:1022FC008A689A438A6080F31088EFF3108083F326
:10230C00108821688A684235FF35AA438A6080F3B9
:10231C0010888C222021A1500022E266EFF310815C
:10232C0083F310882268136810208343136081F3B1
:10233C0010888023E058FFF711FDBCE75C21615A3F
:10234C00994200D011E713689B0600D40DE70223D5
:10235C0023672000FFF7CAFE07E75C23E35A5E22DF
:10236C00A15A591A89B2A35A9BB2002B00D1FCE690
:10237C00002900D1F9E6EFF31085012383F31088CF
:10238C0020680268214E3240026085F31088EFF31A
:10239C00108583F31088206882681D4E324082605D
:1023AC0085F310888C222020A0500022E266626700
:1023BC00EFF3108083F31088226813681025AB4369
:1023CC00136080F31088022323672000FFF78EFE32
:1023DC00CBE680235B031362200000F0D9FBC4E63C
:1023EC00A36F002B00D1C0E620009847BDE620006B
:1023FC00FFF761FEB9E6C0460F08000001000010AF
:10240C0020010004EF200008FFFEFFFFDFFEFFFFAE
:10241C00FEFFFFEF200000F0BDFBA6E6200000F061
:10242C00B8FBA2E6F0B58423C35C012B21D0842138
:10243C0001234354882424220251EFF3108683F3A2
:10244C00108805682A680C27BA432A6086F310881E
:10245C00EFF3108583F31088026813680826334362
:10246C00136085F31088202303510023435400206C
:10247C00F0BD0220FCE7F0B58423C35C012B21D016
:10248C00842101234354882424220251EFF3108623
:10249C0083F3108805682A680C27BA432A6086F3F0
:1024AC001088EFF3108583F31088026813680426F4
:1024BC003343136085F310882023035100234354C6
:1024CC000020F0BD0220FCE7F8B504000168836829
:1024DC000269134342691343C26913430A68B04843
:1024EC00024013430B6022685368AE490B40E1680D
:1024FC000B435360A1692268AB4B9A4204D0AB4B9F
:10250C009A4201D0236A19439368A94803400B43AC
:10251C0093602268D36A0F218B43616A0B43D362A9
:10252C002368A44A934219D0A34A934227D0A34AC2
:10253C00934235D0A24A934200D188E0A14A9342FB
:10254C0000D19DE0A04A934200D19BE0964A934271
:10255C0037D0964A93424CD0102279E09B4A516D69
:10256C0003220A40022A5CD005D8002A5BD0012A3B
:10257C005BD103326CE0032A59D1053268E0934AEF
:10258C00516D0C220A40082A53D005D8002A52D08B
:10259C00042A5DD010225BE00C2A4ED1043A57E09D
:1025AC008A4A516D30220A40202A48D005D8002A88
:1025BC0047D0102A47D10C3A4AE0302A45D1283A64
:1025CC0046E0824A526DC02109010A40802109016E
:1025DC008A4259D007D8002A58D08021C9008A4293
:1025EC0056D1042234E0C02109018A4252D108227A
:1025FC002EE0764A526DC02189000A400139FF391C
:10260C008A4249D007D8002A48D00139FF398A427A
:10261C0046D104221CE0C02189008A4242D1082202
:10262C0016E0022214E0002212E0102210E0102228
:10263C000EE002220CE000220AE0102208E0022246
:10264C0006E0002204E0102202E0102200E000224A
:10265C0055498B4228D055498B4225D0E0698023BF
:10266C001B0298426AD0042A00D1E1E000D9BEE0F6
:10267C00002A00D1C2E0022A00D0B6E05448C1E0E2
:10268C000022E5E70022E3E70222E1E70022DFE790
:10269C001022DDE71022DBE70222D9E70022D7E780
:1026AC001022D5E71022D3E7042A43D007D8002AFA
:1026BC000CD0022A01D1464D0EE00120BEE0082AC2
:1026CC0002D180252D0207E00120B7E0FFF7F4F8D6
:1026DC000500002D00D1AEE0626A3E4B5200D75A85
:1026EC0039002800FDF7EEFD666873009B198342E4
:1026FC0000D9A2E03303834200D2A8E03A000023C1
:10270C0028000021FDF754FF050E0B022B4302029B
:10271C00700800218018594132000023FDF748FF52
:10272C002D4BC2182D4B9A4200D992E02368D860E9
:10273C00002083E0FEF798FF0500CAE7042A51D079
:10274C0007D8002A09D0022A01D121480AE0012029
:10275C0074E0082A06D0012070E0FFF7ADF80028DD
:10276C0000D178E0626A1B4B5200D15AFDF7AAFDEA
:10277C00400061684B08C018FDF7A4FD0200103A38
:10278C00174B9A4200D968E082B20F239A43400853
:10279C00083B034013432268D36000204EE0C04640
:1027AC00F369FFCFFFCFFFFF0080004000840040A3
:1027BC00FFF4FF1100380140004400400048004085
:1027CC00004C004000500040003C01400010024012
:1027DC000024F4004462000800FDFFFFFFFC0F0022
:1027EC00EFFF0000FEF740FFB9E7012026E0082AC2
:1027FC0002D18020000205E001201FE0FFF75CF809
:10280C0000282CD0626A184B5200D15AFDF75AFDA1
:10281C0061684B08C018FDF755FD0200103A134BC8
:10282C009A421ED823680004000CD860002005E0F2
:10283C00FEF71AFFE4E7002000E0012001236A22E2
:10284C00A352023AA35200236367A367F8BD012089
:10285C00F4E70120F2E70020F0E70120EEE700208A
:10286C00ECE70120EAE7C04644620008EFFF0000F5
:10287C00836A1B0706D5026853682C490B40816B91
:10288C000B435360836ADB0706D5026853682849FB
:10289C000B40C16A0B435360836A9B0706D50268E1
:1028AC00536824490B40016B0B435360836A5B07ED
:1028BC0006D50268536820490B40416B0B435360AB
:1028CC00836ADB0606D5026893681C490B40C16B12
:1028DC000B439360836A9B0606D50268936818497C
:1028EC000B40016C0B439360836A5B060BD502684B
:1028FC00536814490B40416C0B435360426C80236A
:10290C005B039A420AD0836A1B0606D50268536899
:10291C000D490B40C16C0B43536070470268536800
:10292C000A490B40816C0B435360ECE7FF7FFFFFC0
:10293C00FFFFFDFFFFFFFEFFFFFFFBFFFFEFFFFFB2
:10294C00FFDFFFFFFFFFEFFFFFFFF7FFFFFF9FFF23
:10295C00F8B5CE46474680B506000D0017009946DF
:10296C00089B98463368DC692C40641B63425C41CD
:10297C00BC4233D143460133F4D0FFF745FB4B4601
:10298C00C01A40452FD84346002B2ED0326813680E
:10299C005B07E7D5802DE5D0402DE3D0D3691B072D
:1029AC0010D4D3691B05DDD580231B0113623000C5
:1029BC00FFF74EFB90232022F2500C3B0022F254E6
:1029CC0003200CE0082414623000FFF741FB902335
:1029DC00F4500C3B0022F254012000E00020C0BC5B
:1029EC00B946B046F8BD0320F9E70320F7E700002D
:1029FC0030B583B0040090230022C250FFF704FBD3
:102A0C00050023681B681B0710D423681B685B0731
:102A1C002BD420238822A3500432A3500023E36636
:102A2C002367083AA354002003B030BD8021234B08
:102A3C0000930300002289032000FFF789FF002880
:102A4C00E3D0EFF31081012383F31088226813681D
:102A5C0080208343136081F3108888232022E25066
:102A6C00043B0022E2547D38DEE78021134B0093B7
:102A7C002B000022C9032000FFF76AFF0028C8D0F2
:102A8C00EFF31080012282F3108821680B680C4D43
:102A9C002B400B6080F31088EFF3108082F31088CA
:102AAC0021688B6893438B6080F310888C231F32D2
:102ABC00E250083B0022E2540320B5E7FFFFFF0180
:102ACC00DFFEFFFF10B5041E35D08823C358002B42
:102ADC0027D088232422E2502268136801218B43DB
:102AEC001360A36A002B22D12000FFF7EDFC012814
:102AFC0016D02268536811490B40536022689368C2
:102B0C0022218B439360226893681A390B4393609C
:102B1C002268136807390B4313602000FFF768FF26
:102B2C0010BD84330022C254FEF70EF9D1E7200009
:102B3C00FFF79EFED8E70120F2E7C046FFB7FFFF84
:102B4C00F8B50400436E002B05D101336A22835281
:102B5C00023A8352F8BD026895686D0E07231D403A
:102B6C009268520F1340084FF85CC000074EF15C9E
:102B7C00FDF732FC6A23E052785DC000715DFDF711
:102B8C002BFC6823E052E5E7646200085C620008F5
:102B9C00704770477047000070B58423C35C012BED
:102BAC0015D0842401260655882524234351026818
:102BBC0013681168B1431160064A13400022426643
:102BCC0001680B60202343510255002070BD022088
:102BDC00FCE7C046FFFFFFDFF8B504000A008423C2
:102BEC00C35C012B1BD0842501206055882624232F
:102BFC00A35123681F681968814319602068836892
:102C0C00DB00D908114381602000FFF799FF23688E
:102C1C001F602023A351002363550020F8BD022020
:102C2C00FCE70000F8B504000B008422825C012A4A
:102C3C001BD084250120605588262422A2512268AD
:102C4C001768116881431160226891680848014037
:102C5C00194391602000FFF773FF23681F60202346
:102C6C00A351002363550020F8BD0220FCE7C046A9
:102C7C00FFFFFFF17047000010B512491248002207
:102C8C0002F092F9002811D110490F4802F0A6F970
:102C9C0000280ED10E490C4803F025FA00280BD160
:102CAC00094802F0B9F9002809D110BDFDF7F6FD6D
:102CBC00EAE7FDF7F3FDEDE7FDF7F0FDF0E7FDF7D3
:102CCC00EDFDF2E74000002000020020B8000020DB
:102CDC006000002012230B80004870472C0000205D
:102CEC0004230B80004870472800002030B50023D7
:102CFC000AE05D0037344C5500015C0001340C19BE
:102D0C00002525700133DBB2934206D2040F092C47
:102D1C00EFD85D0030344C55EEE730BD70B50B4B41
:102D2C0018680B4B1D680B4B1B68C018002800D192
:102D3C0070BD094C08222100FFF7D8FF210010318B
:102D4C0004222800FFF7D2FFF2E7C0469075FF1F60
:102D5C009475FF1F9875FF1F0E00002010B51A23E5
:102D6C000B80FFF7DBFF014810BDC0460C000020B4
:102D7C0010B50A00002805D10549064802F0F2FEFC
:102D8C00034810BD0249034802F0ECFEF8E7C046C8
:102D9C00DC040020CC62000810B50A00034C044887
:102DAC00210002F0DFFE200010BDC046DC04002034
:102DBC00E462000810B50A00002805D10549064850
:102DCC0002F0D0FE034810BD0249034802F0CAFECF
:102DDC00F8E7C046DC040020F862000810B50A00D1
:102DEC00002805D10549064802F0BCFE034810BD79
:102DFC000249034802F0B6FEF8E7C046DC040020A6
:102E0C0004630008002070470020704700207047C2
:102E1C0070B505000968002909D1074C290020006C
:102E2C0003F080F9200003F0AEF9002070BD89B2E8
:102E3C00FDF7EAFCF1E7C0460002002010B5064998
:102E4C00064C0022200003F05BF90549200003F03A
:102E5C0069F9002010BDC046DC06002000020020ED
:102E6C00DC0E002010B50A00094BAF21890059581F
:102E7C0085239B00CB58002B01D0012010BD044CA6
:102E8C000100200003F03CF9200003F05AF9F5E7AB
:102E9C0000020020022804D005D8002800D003200E
:102EAC0070470120FCE70320FAE710B5FDF76EFD33
:102EBC0010BD000010B596B004004C22002103A8F0
:102ECC00FDF766F922681C4B9A4201D016B010BD72
:102EDC0080235B04039303A8FEF702FD002825D191
:102EEC00164BDA6B802189010A43DA63DA6B0A40EC
:102EFC000192019ADB6BDB001BD4104CE36B80223C
:102F0C0052051343E363E36B13400293029BFEF7FA
:102F1C009BFFE36B0A4A1340E36300220021082065
:102F2C00FFF712F80820FFF713F8CFE7FDF7B6FC10
:102F3C00D6E7FEF789FFF0E7005C00400010024086
:102F4C00FFFFFFEF10B50100B7239B00C058403BBB
:102F5C009C46614402F07AF810BD10B50300B7220C
:102F6C00920080588A005218D2009B186933FF33A4
:102F7C001A6802F011F910BD10B50300B7229200C7
:102F8C0080588A005218D2009B189A6A02F072F983
:102F9C0010BD10B5B7239B00C05802F0E7F810BD68
:102FAC0070B50400C379022B09D1B725AD00605967
:102FBC00012102F0B4F8605902F078F870BDFDF709
:102FCC006DFCF2E710B50400B7239B00C05802F06B
:102FDC00A9F8E37A002B04D0024A136906210B43AB
:102FEC00136110BD00ED00E010B50400C37A002B96
:102FFC0005D1B7239B00E05802F0A8F810BD044A95
:10300C00136906218B431361FFF74FFFF1E7C046AD
:10301C0000ED00E070B504002048B7239B00C450BD
:10302C00143BE0501E4B0360082303714371063BB5
:10303C00C371437200238372C3720373437383732C
:10304C00C373037400F07CF9002823D1B225AD00C2
:10305C00605918230022002101F0ACF86059582364
:10306C000022802101F0A6F86059C02300228121A2
:10307C0001F0A0F8605988235B000022012101F0C7
:10308C0099F8605980235B000022822101F092F8AC
:10309C00002070BDFDF702FCD8E7C046FC180020EC
:1030AC00005C004010B5B2239B00C05800F0B0F992
:1030BC00FFF7F0FE10BD10B514001A00B2239B00F0
:1030CC00C058230000F01CFFFFF7E4FE10BD10B544
:1030DC00B2239B00C05800F055FFFFF7DBFE10BD7C
:1030EC0010B5B2239B00C05800F0E6FFFFF7D2FEEC
:1030FC0010BD10B5B2239B00C05801F019F8FFF7B2
:10310C00C9FE10BDB2239B00C3584AB2002A09DB8A
:10311C007F2211408A005218D2009B185733FF337C
:10312C00187870477F2211408A005218D2009B18E1
:10313C00987DF6E710B5B2239B00C05800F012FE44
:10314C00FFF7A8FE10BD10B5B224A400005900F082
:10315C0082FFFFF79FFE10BD10B5B224A4000059EA
:10316C0000F049FFFFF796FE10BD10B5B2239B008F
:10317C00C05800F066FF10BD10B5040000290FD038
:10318C00012915D1B7239B00C05801F0CBFFE37A7E
:10319C00002B0DD00B4A136906210B43136107E07A
:1031AC00C37A002B05D1B7239B00E05801F0CEFF6A
:1031BC0010BDFFF77AFE034A136906218B43136196
:1031CC00F1E7C04600ED00E000487047DC16002037
:1031DC007047000082B00A23019302E0019B013B7F
:1031EC000193019B002BF9D1CB00044A9446634414
:1031FC005868000C8005800D02B0704700980040A4
:10320C0082B00A23019302E0019B013B0193019BD5
:10321C00002BF9D1CB00044A944663441868000C87
:10322C008005800D02B070470098004082B00A23E0
:10323C00019302E0019B013B0193019B002BF9D10F
:10324C00CB00044A944663445868000C8005800DFA
:10325C0002B0704700980040F8B507000C0015004C
:10326C00530433D500680978FFF7CAFF0300060042
:10327C00A269824221D3121AA261A269002A0CD13E
:10328C003A68217889005218116829480140802039
:10329C00800148402749014311606D0609D53A6801
:1032AC0021788900521810682349084023490143AA
:1032BC001160002E04D13000F8BD0022A261DCE7C1
:1032CC0038682289616901F043FEF4E700680978E7
:1032DC00FFF7ACFF03000600A269824225D3121A45
:1032EC00A261A269002A0CD13A682178890052188F
:1032FC0011680F4801408020800148400D4901436E
:10330C0011606D0609D43A6821788900521810684A
:10331C0009490840094901431160002ECBD0386897
:10332C006289616901F014FEC5E70022A261D8E749
:10333C008FBFFF07808000008F8FFF07C0800000C9
:10334C0070B582B0041E5ED0304BC35C002B07D02E
:10335C002E4B0322E254206800F066FF002218E096
:10336C00A5239B000022C254FFF7A4FDF0E79300B5
:10337C009B18DB00E318012159751A750021D975CA
:10338C0059629962013293009B18DB00E318596073
:10339C00D2B220799042EAD8002119E08A00531861
:1033AC00DB00E3181E005636FF3600253570013E53
:1033BC003170033635700D3635606933FF331D605F
:1033CC005218D200A2186D32FF3215600131C9B209
:1033DC008842E3D820686B46227C1A706168A26828
:1033EC00E36800F03CFF00236374084B0122E254B5
:1033FC00237B012B02D0002002B070BD200000F016
:10340C00F8FE0020F8E70120F6E7C0469502000020
:10341C0070B50400A5239B00C35C012B0DD0A52522
:10342C00AD0001234355006800F0F6FE206801F062
:10343C007FFA00236355002070BD0220FCE70000DA
:10344C0070B506000C001500530600D403E10068AB
:10345C000978FFF7D5FE0200A369834223D91B1A12
:10346C00A361A369002B21D06D0409D533682178A1
:10347C0089005B181868CB490840CB490143196097
:10348C002423E35C012B00D17BE0326823789B0082
:10349C00D2181368C5490B4030214B40C4490B432B
:1034AC001360002070BD0023A361DAE76378002B62
:1034BC0038D12378DB00BF4A944663441A689201E2
:1034CC0092091A602378DB00634419688022120683
:1034DC000A431A606378002B35D12378DB00B54A98
:1034EC00944663445A68920192095A602378DB002F
:1034FC0063445968802212060A435A60E378022B0F
:10350C0032D021783000FFF737FD6D04C9D5336810
:10351C00227892009B181968A24A1140A24A0A43C9
:10352C001A60BEE7012BD5D12378DB00A14A944663
:10353C0063441A681204120C1A602378DB0063448B
:10354C001A681A60C6E7012BD8D12378DB00994A98
:10355C00944663445A681204120C5A602378DB00B8
:10356C0063445A685A60C9E7326823789B00D218C2
:10357C0013688E490B4020214B408D490B4313603F
:10358C00BFE763699B186361E369D318E361216A40
:10359C002369994218D3C91A21626278002A40D152
:1035AC002278D20083498C466244116889018909CA
:1035BC001160002B14D12278D20062441068802153
:1035CC000906014311602EE0002903D12423E154A4
:1035DC001300E2E700232422A35423620B00DCE750
:1035EC003E2B0DD85908DA0700D501312278D200CC
:1035FC00704884466244106889060143116012E0E9
:10360C005909DA0600D101392278D200694884467A
:10361C006244106889060843802109060143116041
:10362C0001E0012A06D030689BB22289616901F061
:10363C0089F92AE72278D2005E498C4662441168E7
:10364C000904090C11602278D20062441168180434
:10365C0001431160E7E700680978FFF7E7FD020016
:10366C00A36983423BD31B1AA361A369002B39D0F6
:10367C006D0409D43368217889005B1818684949AE
:10368C0008404949014319602423E35C012B00D015
:10369C00FBE663699B186361E369D318E361216AF4
:1036AC002369994200D294E0C91A21626278002AF7
:1036BC0000D0BBE02278D2003E498C46624451686F
:1036CC00890189095160002B00D08EE02278D2004C
:1036DC00624450688021090601435160A8E0002330
:1036EC00A361C2E76378002B39D12378DB00314A20
:1036FC00944663441A68920192091A602378DB009D
:10370C0063441968802212060A431A606378002BFE
:10371C0036D12378DB00274A944663445A689201D9
:10372C0092095A602378DB006344596880221206A0
:10373C000A435A60E378022B3ED021783000FFF721
:10374C001BFC6D0400D5ACE63368227892009B1804
:10375C001968144A1140144A0A431A60A1E6012B55
:10376C00D4D12378DB00134A944663441A681204BC
:10377C00120C1A602378DB0063441A681A60C5E7E0
:10378C00012BD7D12378DB000A4A944663445A684C
:10379C001204120C5A602378DB0063445A685A6096
:1037AC00C8E7C0468F8FFF0780C00000BF8FFF07A0
:1037BC008080000000980040326823789B00D2186B
:1037CC00136827490B4020214B4026490B431360BB
:1037DC00B3E7002903D12423E154130066E7002347
:1037EC0023622422A3540B0060E73E2B0DD859080A
:1037FC00DA0700D501312278D2001B488446624496
:10380C00506889060143516012E05909DA0600D16B
:10381C0001392278D20014488446624450688906E3
:10382C000843802109060143516001E0012A06D0BA
:10383C0030689BB26289616901F084F825E62278D0
:10384C00D20009498C46624451680904090C516044
:10385C002278D20062445168180401435160E7E7B2
:10386C00BF8FFF078080000000980040F8B5DE464F
:10387C0057464E464546E0B5040047E00268DA4B31
:10388C001A4080231B0213430360237DDB00D74ABD
:10389C00944663441B681B0C9B059B0D2363A26A17
:1038AC00D318A36200212000FFF766FB637C002B7A
:1038BC002CD0E36A002B29D1637C226880214942F9
:1038CC000B43DBB2D364002363741FE0AA235B00B9
:1038DC00E15CFFF77FFC030022005532FF32D06120
:1038EC00082845D12068A7229200A1182200553241
:1038FC00FF32D28801F02CFB22681368BC490B40C4
:10390C0080210B4313602000FFF71CFB2068436CE5
:10391C001B0400D41AE2436C0F251D401A0700D576
:10392C001CE2002D52D1DB06A8D503681A05CDD4B4
:10393C001B04EBD50368AE4A13408022134303608B
:10394C002068AA235B00E15CFFF744FC0300220023
:10395C005532FF32D061002824D121680B68A54A6A
:10396C001340C02292015A40A34B13430B60CDE786
:10397C0021680A689F4B1A4080235B0153409E4A82
:10398C0013430B6021680B689C4803401020434094
:10399C001A430A602268136895490B4080210B4337
:1039AC001360D4E122005532FF3251690029ADD0A9
:1039BC0020681500D28801F0CBFA6B69EA699B1874
:1039CC006B6100212000FFF7C8FA9FE7AB00994616
:1039DC0048440668B3B29B46330447D4330695D5A6
:1039EC002A00AB005919C9001031611804318846FE
:1039FC002068484407687C49394080273F020F43C0
:103A0C0007605B19DB00E318DB7D012B00D1FBE0C9
:103A1C00F60500D594E1AB005B19DB00E3181D7DC6
:103A2C00EB0072498C4663441868000C8005800DCD
:103A3C00561CB3009B19DB00E3185E68864200D865
:103A4C005FE1571CBB00DB19DB00E318361A5E6024
:103A5C00561CB3009B19DB00E3185B68002B00D0ED
:103A6C0057E129002000FFF787FA4FE70368604A07
:103A7C001340802213430360A8464B465F19FF0096
:103A8C005137FF37E7193A1D92465B19DB00E318F3
:103A9C006133FF331B78002B33D0AB005B19DB0099
:103AAC00E3185833FF331B78022B6CD02168AB0022
:103ABC004344DB00E3185533FF331A7892008A181D
:103ACC0010684F4908404F4901431160206819782C
:103ADC008B00C3181B685B045CD5FFF791FB0300DC
:103AEC00071E1BD02068A9004144C90061180A00B8
:103AFC005D32FF3212886931FF31096801F028FA12
:103B0C000CE020684B465B19DB00E3185533FF33A0
:103B1C001978FFF75FFB0300071E25D143469B0076
:103B2C004344DB00E31818007130FF300168C919F9
:103B3C0001606D33FF331B68002B09D043469B009B
:103B4C004344DB00E3186533FF331B689F4235D2D7
:103B5C0043469B004344DB00E3185533FF3319788D
:103B6C002000FFF7FAF939E7206849464144C900BB
:103B7C0061180A005B32FF3212886931FF31096823
:103B8C0001F0E6F9CAE75A4651462000FFF764FBFC
:103B9C000700C3E7FFF74AFB0300071EBED02068EF
:103BAC00A9004144C90061180A005F32FF32128833
:103BBC006931FF31096801F0CBF9AFE743469B004F
:103BCC0041465918C90061186931FF3109684344ED
:103BDC00DB00E3186933FF33C919196020685146BB
:103BEC0000F0DEFEFAE6C0460F8FFF07009800409B
:103BFC008F0FFF078FBFFF0780800000BF8FFF076D
:103C0C008F8FFF07C0800000691C8B005B18DB00E6
:103C1C00E31800215960AB005B19DB00E31820337B
:103C2C001B78002B1DD0760639D5AB005B19DB0059
:103C3C00E3185B7D002B1DD1AB005B19DB00E31897
:103C4C00197DC90046488446614408688001800992
:103C5C0008601B7DDB006344186880210906014362
:103C6C00196093009B18DB00E318197D2000FFF707
:103C7C0083F94BE6012BF4D1AB005B19DB00E318A5
:103C8C00197DC90036488446614408680004000C5C
:103C9C0008601B7DDB00634419681960E1E7AB0029
:103CAC005B19DB00E3185B7D002B15D1AB005B19B6
:103CBC00DB00E318197DC900294884466144486833
:103CCC008001800948601B7DDB00634458688021BB
:103CDC00090601435960C4E7012BC2D1AB005B1943
:103CEC00DB00E318197DC9001D488446614448680F
:103CFC000004000C48601B7DDB006344596859606C
:103D0C00AFE7561CB3009B19DB00E31800265E607E
:103D1C009EE693009B18DB00E3189D6A2D189D62AC
:103D2C00531C9A00D518ED006519AD68D218D20055
:103D3C00A218401990602068414600F031FEE5E57C
:103D4C005A4641462000FFF77BFBDFE500252800A3
:103D5C00F0BCBB46B246A946A046F8BD0125F6E725
:103D6C000098004070B50400A5239B00C35C012B98
:103D7C000BD0A525AD00012343554174006800F01C
:103D8C00D1FD00236355002070BD0220FCE700002C
:103D9C0010B50400006800F0D2FD5049A0228A58EA
:103DAC0052072ED5020416D4420518D4420423D44B
:103DBC00820427D4C2042BD402054AD402065BD455
:103DCC00820500D581E0C0051BD52268536C44499F
:103DDC000B40536415E02000FFF748FD11E022680A
:103DEC00536C40490B4053642000FFF7D9F8002175
:103DFC002000FFF7B7FF04E02268536C3A490B40F0
:103E0C00536410BD2268536C38490B405364F8E777
:103E1C002268136C04218B4313642268136C0431E5
:103E2C008B431364B3239B00E35C012B08D020006D
:103E3C00FFF7DAF82268536C2D490B405364E0E726
:103E4C00B3239B000022E25400212000FFF794F9D9
:103E5C00EDE72268136C08210B4313642268536C42
:103E6C0024490B4053642268136C04210B431364E4
:103E7C002000FFF7A7F8C4E72268536C1E490B40DB
:103E8C005364B3239B00E35C002B1AD12268136CA0
:103E9C0004210B4313642268136C04310B43136429
:103EAC00B3239B000122E25423685A6D92083C23F1
:103EBC001340B4229200A35007392000FFF75CF99D
:103ECC009FE72000FFF77EF89BE72268536C0B49B5
:103EDC000B4053642000FFF75CF892E700000140B0
:103EEC00FFFE0000FFFB0000FFBF0000FFDF000033
:103EFC00FFEF0000FFF700007FFF0000FFFD000058
:103F0C00F8B504000E0049B2002928DB072737401A
:103F1C00B800C119C9005131FF3161180431C01901
:103F2C00C00020185630FF300025057007203040A7
:103F3C0008705205520D0A61CB70022B1DD0A523BF
:103F4C009B00E35C012B1BD0A525AD000123635521
:103F5C00206800F099F9002363550020F8BD07256F
:103F6C003540A8004119C9001031611804314019BD
:103F7C00C000201801254575D8E700230B71DEE73A
:103F8C000220EBE770B5040008004BB2002B22DBDB
:103F9C0007250D40AB005919C9005131FF3161188B
:103FAC0004315B19DB00E3185633FF3300221A701F
:103FBC00072303400B70A5239B00E35C012B18D057
:103FCC00A525AD0001236355206800F097FB002365
:103FDC006355002070BD07220A4093009918C90050
:103FEC001031611804319B18DB00E31801225A755B
:103FFC00DEE70220EEE7F8B507260E40B400A11963
:10400C00C9005131FF3141180431A519ED00451992
:10401C002F006937FF373A602A006D32FF32136088
:10402C000432002313605635FF352B70A419E400BD
:10403C0004195534FF342670006800F0B1FC0020E0
:10404C00F8BD07230B409900C918C90040187130FE
:10405C00FF3000687047F8B5CE46474680B51F0064
:10406C0007250D40AB005919C90010314118043116
:10407C0089465C19E4000419A2626A1C94469200F9
:10408C0066469619F600861977603826B046A04425
:10409C00373E41460E7067636244D2008218002797
:1040AC009760667525750068494600F079FC00201C
:1040BC00C0BCB946B046F8BD70B504000B00072073
:1040CC000840227982422FD34AB2002A20DB8A0090
:1040DC005118C9005131FF3161180431D218D20086
:1040EC00A2185632FF320023137001238B70087014
:1040FC00A5239B00E35C012B18D0A525AD00012363
:10410C006355206800F0A4FB00236355002070BDAC
:10411C0083001918C9001031611804311B18DB0019
:10412C00E31801225A75E0E70120F0E70220EEE7E0
:10413C0070B50400080022790F230B409A4235D346
:10414C004BB2002B24DB07250D40AB005919C900DD
:10415C005131FF31611804315B19DB00E318563320
:10416C00FF3300221A7000238B70073303400B704F
:10417C00A5239B00E35C012B1AD0A525AD000123E0
:10418C006355206800F088FB00236355002070BD48
:10419C0007220A4093009918C900103161180431A4
:1041AC009B18DB00E31801225A75DCE70120EEE7CF
:1041BC000220ECE710B50C060DD507240C40A1002D
:1041CC000919C900103140180430002A0BD10273B0
:1041DC00C380002010BD8C006118C9005131FF3123
:1041EC0040180430F1E70122027303811B0C438158
:1041FC00EFE710B503680121B52292008150083A0F
:10420C00002484545A6D0A435A655A6D01310A438D
:10421C005A65002010BD000000234364014B036469
:10422C000020704780BF0000036C024A13400364F7
:10423C00002070477F40FFFF002905D1036C5B0015
:10424C005B08036408007047012906D1026C8023C7
:10425C001B06134303640020F5E70120F3E784B049
:10426C0010B5040003910492059301220264036CBF
:10427C00934303640021FFF7DFFF0023636410BC4A
:10428C0008BC04B018470000F0B503000C78A4007B
:10429C0004192268CE480240C878022856D00AD8A1
:1042AC00002811D0012804D18020C0000243002036
:1042BC000DE001200BE0032804D1C020C000024314
:1042CC00002004E0012002E08025AD002A43C14D0E
:1042DC002A4322600C78A2009A181668BE4F3E4002
:1042EC003443254315600A7B002A00D0A6E04A78A7
:1042FC00002A37D00A78D200B84CA446624414681D
:10430C00240C240414600A78D20062441568CC880A
:10431C00A408A4002C4314600A7892009A1814681C
:10432C00640604D515683D40AD4C2C431460CA7826
:10433C00012A0DD00A7892009B181A68A9490A40E4
:10434C0020214A40A3490A431A607CE10020BEE7C1
:10435C000A7892009B181968A24A11409D4A0A4398
:10436C001A6070E10A78D2009C4CA44662445468EE
:10437C00240C240454600A78D20062445568CC881A
:10438C00A408A4002C4354600A78D20062445468F8
:10439C00A401A40954600A69002A22D10A78D20027
:1043AC0062445568802424062C4354600A78920099
:1043BC009A181468640405D51568874C25408A4CF6
:1043CC002C4314600A78002A2CD192009A18136896
:1043DC0086490B40C021890159407E4B0B43136029
:1043EC0031E13E2A0DD85408D20700D501340A78A1
:1043FC00D2007A4DAC4662445568A4062C435460F6
:10440C00D4E75409D20600D1013C0A78D200734D8E
:10441C00AC4662445568A4062543802424062C43EC
:10442C005460C3E792009A18136870490B408021BE
:10443C0089015940674B0B43136004E1CA78022A87
:10444C005ED00A7892009A181568694C2540614C28
:10445C002C4314600A78D200604CA4466244146861
:10446C00240C240414600A78D200624415680C8968
:10447C00A408A4002C4314600A78D2006244546847
:10448C00240C240454600A78D200624455684C8988
:10449C00A408A4002C4354604A78002A00D0E5E01C
:1044AC000A7892009A181468640405D515684A4C69
:1044BC0025404D4C2C4314600A7892009A181468CD
:1044CC00640605D51568444C2540454C2C431460B6
:1044DC004A78002A3FD10A78D200404CA446624464
:1044EC001468A401A40914600A69002A12D10A787C
:1044FC00D20062441568802424062C4314602CE0FE
:10450C000A7892009A181568334C2540394C2C4384
:10451C0014609FE73E2A0DD85408D20700D5013409
:10452C000A78D2002D4DAC4662441568A4062C4383
:10453C00146012E05409D20600D1013C0A78D20072
:10454C00264DAC4662441568A406254380242406F7
:10455C002C43146001E0012A17D04A78002A5CD160
:10456C000A78D2001D4CA44662445468A401A409E4
:10457C0054600A69002A1AD10A78D200624455683C
:10458C00802424062C43546049E00A78D200134C52
:10459C00A446624414682404240C14600A78D200E3
:1045AC00624414680D692D042C431460D5E73E2A2F
:1045BC0022D85408D20700D501340A78D200074D0E
:1045CC00AC4662445568A4062C43546027E0C046B0
:1045DC008F89FF07808000008F8FFF0700980040B5
:1045EC00C0800000BF8FFF0780C000008FBFFF0797
:1045FC008F8EFF07808100005409D20600D1013C48
:10460C000A78D200364DAC4662445568A406254360
:10461C00802424062C43546001E0012A14D00A782B
:10462C0092009A1815682F4C2540C024A4016C40A8
:10463C002D4D2C4314600A7892009B181A682B4954
:10464C000A4015431D60F0BD0A78D200244CA446E4
:10465C00624454682404240C54600A78D2006244E6
:10466C0054680D692D042C435460D8E70A789200E5
:10467C009A181468640405D515681D4C25401D4C0A
:10468C002C4314600A7892009A181468640605D5B5
:10469C001568174C2540184C2C431460CA78012A15
:1046AC0014D00A7892009A181468104D2C402025CA
:1046BC006C400D4D2C4314600A7892009B181968BD
:1046CC00084A1140084A0A431A60BCE70A7892006B
:1046DC009A181568054C2540034C2C431460EBE7E5
:1046EC00009800408FBFFF0780800000BF8FFF073E
:1046FC008F8FFF0780C00000C080000010B50B7BBF
:10470C00002B2FD14B78002B16D00B789B00C318A5
:10471C001A68520605D51C68474A1440474A22437A
:10472C001A600B789B00C3181968454A1140454A1A
:10473C000A431A60002010BD0B789B00C3181A683E
:10474C00520405D51C683C4A14403F4A22431A6067
:10475C000B789B00C31819683C4A1140394A0A432C
:10476C001A60E7E74B78002B32D10B789B00C3180B
:10477C001A68520405D51C682F4A1440324A224349
:10478C001A600B789B00C3181A68520605D51C6872
:10479C00294A1440294A22431A600B789B00C318FB
:1047AC001C68254A1440254A22431A600B789B004A
:1047BC00C3181A68254C2240224C22431A600B78ED
:1047CC009B00C3181A681E490A4014431C60B1E7C9
:1047DC000B789B00C3181A68520405D51C68164A3E
:1047EC001440194A22431A600B789B00C3181A68AC
:1047FC00520605D51C68104A1440104A22431A6010
:10480C000B789B00C3181C680B4A14400E4A2243B9
:10481C001A600B789B00C3181A68094C2240094C8B
:10482C0022431A600B789B00C0180368074A134098
:10483C001C4304607EE7C0468F8FFF07C0800000DA
:10484C00BF8FFF078080000080C000008FBFFF0774
:10485C004B78002B0CD00B789B00C01803680B4ACC
:10486C001340102253400A4A134303600020704740
:10487C000B789B00C0180368064A13408022520133
:10488C005A40034B13430360F0E7C046BF8FFF074A
:10489C00808000008FBFFF0710B54B78002B1AD01B
:1048AC000B789B00C3181A68520605D51C68174A6A
:1048BC001440174A22431A60CB78012B23D00B7873
:1048CC009B00C3181A6813490A4020214A40124918
:1048DC000A431A6017E00B789B00C3181A6852043D
:1048EC0005D51C68094A14400C4A22431A600B78FF
:1048FC009B00C01803680A4A1340C02292015A4018
:10490C00054B13430360002010BDC0468F8FFF077B
:10491C00C0800000BF8FFF078080000080C00000B7
:10492C008FBFFF07002901D18023C364002070478B
:10493C00826D80231B021343836500207047406CFB
:10494C007047000070B5DC1CA408032005001D4056
:10495C00184200D0013C114B9C4662440CE0087894
:10496C004B781B020343887800041843CB781B0652
:10497C00034308C20431013C002CF0D1002D0BD0B4
:10498C0020000B78C600B3401C4301300131013DBF
:10499C00ADB2002DF5D1146070BDC046009800403A
:1049AC0070B505000C004B78012B15D00B7B002B40
:1049BC0000D0A1E28B69002B00D07DE2CB78002BDC
:1049CC0000D079E20B789B00C3181968CE4A1140CD
:1049DC00CE4A0A431A6078E28E690A69964200D977
:1049EC001600217B002923D0E178022943D0226ACA
:1049FC00921B22622278910069180968490600D43A
:104A0C000EE2002B00D0F5E1D200C14B9C46624473
:104A1C0053689B019B095360002E00D0C9E1237899
:104A2C00DB0063445968802212060A435A60F0E1A5
:104A3C00B3B2E28861692800FFF784FF2378DB00BA
:104A4C00B34A944663441A681204120C1A60227812
:104A5C00D2006244116836040E43166023789B0022
:104A6C00EB181A68AB490A4030214A40AA490A435C
:104A7C001A6000203CE2236A9A4200D379E1237841
:104A8C009B00EB181968A04A1140A04A0A431A600F
:104A9C00236A9B1B236223789A00AA181268520679
:104AAC0000D4ADE06278002A33D1DB00984A9446FA
:104ABC0063445A68920192095A60002E08D12378F7
:104ACC00DB0063445968802212060A435A6022E0D4
:104ADC003E2E0DD87208F30700D501322378DB0087
:104AEC008B498C466344596892060A435A6012E01B
:104AFC007209F30600D1013A2378DB0084498C4615
:104B0C006344596892061143802212060A435A6084
:104B1C0001E0012A25D06289B3B261692800FFF750
:104B2C0011FF63699B196361236A2269934228D937
:104B3C009B1B23626378002B48D12378DB00744ADB
:104B4C00944663441A68920192091A60002E1CD193
:104B5C002378DB0063441968802212060A431A602A
:104B6C0036E0DB006A4A944663445A681204120C1D
:104B7C005A602378DB0063445A6831040A435A6054
:104B8C00C9E7002222621E00D4E73E2E0DD872081F
:104B9C00F30700D501322378DB005D498C46634472
:104BAC00196892060A431A6012E07209F30600D1E2
:104BBC00013A2378DB0056498C4663441968920607
:104BCC001143802212060A431A6001E0012B06D021
:104BDC002289B3B261692800FFF7B4FE3EE723785F
:104BEC00DB004B4A944663441A681204120C1A6098
:104BFC002378DB0063441A6831040A431A60E7E740
:104C0C006278002A33D1DB00414A944663441A6827
:104C1C00920192091A60002E08D12378DB006344BC
:104C2C001968802212060A431A6022E03E2E0DD823
:104C3C007208F30700D501322378DB0034498C4627
:104C4C006344196892060A431A6012E07209F3066B
:104C5C0000D1013A2378DB002D498C466344196856
:104C6C0092061143802212060A431A6001E0012ABF
:104C7C0025D02289B3B261692800FFF763FE63690E
:104C8C009B196361236A2269934228D99B1B236277
:104C9C006378002B53D12378DB001D4A9446634480
:104CAC005A68920192095A60002E1CD12378DB00BD
:104CBC0063445968802212060A435A6041E0DB00C3
:104CCC00134A944663441A681204120C1A6023782F
:104CDC00DB0063441A6831040A431A60C9E70022F6
:104CEC0022621E00D4E73E2E18D87208F30700D5B6
:104CFC0001322378DB0006498C46634459689206DE
:104D0C000A435A601DE0C0468F8FFF078081000068
:104D1C0000980040BF8FFF07808000007209F306E7
:104D2C0000D1013A2378DB0082498C4663445968F0
:104D3C0092061143802212060A435A6001E0012BAD
:104D4C0006D06289B3B261692800FFF7FBFD85E6E6
:104D5C002378DB00774A944663445A681204120C99
:104D6C005A602378DB0063445A6831040A435A6062
:104D7C00E7E722789200AA1810686F4908406F493B
:104D8C00014311602278D2006A498C466244116852
:104D9C000904090C11602278D200624411681804CD
:104DAC000143116022899BB261692800FFF7CAFD9B
:104DBC0054E63E2E0DD87208F30700D50132237845
:104DCC00DB005C498C466344596892060A435A607E
:104DDC001FE07209F30600D1013A2378DB00554934
:104DEC008C466344596892061143802212060A438A
:104DFC005A600EE0D2004F4B9C46624453681B0431
:104E0C001B0C53602378DB0063445A6831040A435B
:104E1C005A606289B3B261692800FFF793FD1DE601
:104E2C00002B33D1D200434B9C46624413689B0148
:104E3C009B091360002E08D12378DB0063441968AA
:104E4C00802212060A431A602FE03E2E0DD87208FB
:104E5C00F30700D501322378DB0036498C466344D6
:104E6C00196892060A431A601FE07209F30600D112
:104E7C00013A2378DB002F498C466344196892066B
:104E8C001143802212060A431A600EE0D200294B0D
:104E9C009C46624413681B041B0C13602378DB00D4
:104EAC0063441A6831040A431A602289B3B26169F7
:104EBC002800FFF747FDD1E523789B00EB18196814
:104ECC001D4A11401D4A0A431A60A3692269934284
:104EDC000FD99B1AA36123789B00ED182B68184AF5
:104EEC001340C02292015A40144B13432B600020F4
:104EFC0070BD0023A361EEE7CB78022B04D0012B0D
:104F0C0016D100238B61E6E7CB69002BE3D00B783D
:104F1C009B00C3181A680B490A408A4201D0002A28
:104F2C00D9D11968084A1140084A0A431A60D2E7D5
:104F3C000120DDE7009800408F8EFF078080000085
:104F4C008FBFFF07404000008F8FFF07C08000001D
:104F5C0070B5D81C800803252C001C40114EB4469B
:104F6C0062441D420BD0013809E008CA0B701D0ABF
:104F7C004D701D0C8D701B0ECB7004310138002848
:104F8C00F3D1002C0CD01268FF230340DB0015007A
:104F9C00DD400D7001300131013CA4B2002CF3D185
:104FAC0070BDC0460098004010B5002814D00023F6
:104FBC00AE24A40003510C3403510C3403510029CA
:104FCC0002D0AD239B00C150A7239B000121C154EB
:104FDC000270FEF71FF810BD0320FCE710B582B07D
:104FEC0004006B460022DA80002913D0AE239B000C
:104FFC00C150CB6A002B05D06A46901D9847B4234C
:10500C009B00E050B6229200A3580133A35000201D
:10501C0002B010BD0320FBE710B5FEF743F810BD3E
:10502C0010B5AE239B00C358002B02D01B689847C9
:10503C0010BD0020FCE710B5AE239B00C3585B6885
:10504C009847002800D110BD0320FCE770B5040080
:10505C00154BC518280000F0B7F9A5239B000122B9
:10506C00E2501C33E25A183BE2500F4BE15C1F2319
:10507C000B40012B08D0022B0BD0002B0ED129009A
:10508C00200000F0C3FB70BD2900200000F0FAFBEB
:10509C00F9E72900200000F03CFCF4E77F2399435A
:1050AC002000FEF71DF8EEE7AA020000F8B5040098
:1050BC00A7239B000122C2540023A52292008350F7
:1050CC00436010328350043A8354AE239B00C35880
:1050DC00002B1ED05B68002B1DD000219847051EAD
:1050EC001BD14023002200212000FDF7E4FF012703
:1050FC00B2235B00E7524026043BE650213BFF3BCA
:10510C00002280212000FDF7D6FFA784266228000C
:10511C00F8BD0025E5E70025E3E70325E1E7017489
:10512C0000207047A7239B00C35C042B05D0A7234A
:10513C009B00C35CDBB2044A8354A7239B0004226C
:10514C00C25400207047C0469D020000A7239B005C
:10515C00C35C042B01D000207047034BC35CDBB253
:10516C00A72292008354F6E79D02000010B5A723F6
:10517C009B00C35C032B01D0002010BDAE239B0011
:10518C00C358002BF8D0DB69002BF5D09847F3E718
:10519C00002070470020704770B504000D0011000E
:1051AC00002D46D1A5239B00C358032B01D028000A
:1051BC0070BD02005532FF329368D268934209D811
:1051CC002A4BC25C1F231340012B0FD0022B1DD086
:1051DC00280011E09B1A5530FF3083609A4200D9A9
:1051EC001A00200000F003FD2800E1E7204BC15C11
:1051FC00FFF7CEFF002804D1A7239B00E35C032B11
:10520C0009D0200000F0FBFC2800D1E7184BC15C52
:10521C00FFF7C0FFEEE70300AE339B001B591A6982
:10522C00002AEED0B5229200A0501B6920009847AE
:10523C00E7E77F212940FFF7ADFF002813D1A72214
:10524C009200A25C032AB3D10200AE329200125932
:10525C0091690029ACD0B52189006050936929006F
:10526C0020009847A4E70020A2E7C046AA0200004D
:10527C00AE02000070B504000D001100002D4ED1DF
:10528C00A5239B00C358022B08D0A8239B00E05CED
:10529C00002802D00022E254280070BDC269036AC3
:1052AC009A420DD817D0A7239B00E35C032B28D080
:1052BC0080212000FDF714FF200000F0ACFCE4E797
:1052CC00D21AC26100F07AFC0023002200212000D7
:1052DC00FDF742FFD9E782699342E4D8A6239B00ED
:1052EC00C3589A42DFD20022002100F067FCA623AB
:1052FC009B000022E250002300212000FDF72CFF30
:10530C00C3E7AE239B00E358DA68002AD0D0B5225D
:10531C0092000021A150DB6820009847C8E780214B
:10532C0049422943C9B2FFF735FF002813D1A72200
:10533C009200A25C032AB0D10200AE329200125944
:10534C0051690029A9D0B521890060505369290001
:10535C0020009847A1E700209FE70B8802789B1854
:10536C000B800378C018704730B583B004000D0073
:10537C008278C3781B0213430278934218D96B4688
:10538C00DA80A278E3781B0213436A46063212884D
:10539C009A420AD26B46991DFFF7DFFF4378052B23
:1053AC00EFD18378AB42ECD100E0002003B030BDEC
:1053BC000020FBE70300002002E00130C0B2013303
:1053CC001A78002AF9D170470B7803704B78437028
:1053DC008A78CB781B02134343800A794B791B02E2
:1053EC00134383808A79CB791B021343C3807047A4
:1053FC0010B504008021FDF773FE00212000FDF79D
:10540C006FFE10BD30B583B004000D006B4600225A
:10541C00DA804A88130A0F2B00D9D8E09B00734915
:10542C00CB589F46AD239B00C358DB69002B05D09E
:10543C00007C6A46911D984701000CE02900FFF79B
:10544C00D7FF1CE0AD239B00C3581B68007C6A4649
:10545C00911D98470100EB88002B00D1C1E06A46F2
:10546C0006321288002A00D1B6E0181C934200D9EB
:10547C00101C82B26B46D880200000F091FB03B068
:10548C0030BD037C002B0AD1AE239B00C3589B6A12
:10549C006A46901D9847010002234370DBE7AE2358
:1054AC009B00C358DB6A6A46901D98470100022393
:1054BC004370D0E7D2B2052A63D892004C4B9B586C
:1054CC009F46AD239B00C3585B68002B05D0007C26
:1054DC006A46911D98470100BDE72900FFF788FF38
:1054EC00CDE7AD239B00C3589B68002B05D0007CF7
:1054FC006A46911D98470100ADE72900FFF778FF38
:10550C00BDE7AD239B00C358DB68002B05D0007CA6
:10551C006A46911D984701009DE72900FFF768FF37
:10552C00ADE7AD239B00C3581B69002B05D0007C55
:10553C006A46911D984701008DE72900FFF758FF37
:10554C009DE7AD239B00C3585B69002B05D0007C05
:10555C006A46911D984701007DE72900FFF748FF37
:10556C008DE7AD239B00C3589B69002B05D0007CB5
:10557C006A46911D984701006DE72900FFF738FF37
:10558C007DE72900FFF734FF79E7037C002B08D176
:10559C00AE239B00C3585B6B6A46901D9847010075
:1055AC0059E72900FFF724FF69E7037C002B0AD198
:1055BC00AE239B00C3581B6B6A46901D9847010095
:1055CC000723437047E72900FFF712FF57E729002D
:1055DC002000FFF70DFF52E729002000FFF708FF1E
:1055EC004DE7200000F00BFB49E7C04614630008B0
:1055FC005463000870B504008B88002B23D1CB8832
:10560C00002B20D14B887F2B1DD87F251D40A72335
:10561C009B00C35C032B0ED00D4BC5542900FDF72A
:10562C0089FD200000F0EBFA002D07D0A7239B008A
:10563C000222E2540AE0FFF7DBFE07E0A7239B00FF
:10564C000122E25402E02000FFF7D2FE70BDC046FA
:10565C009E02000070B505000E008C78334B1C7058
:10566C00012C11D8A7239B00C35CDAB2022B0FD0FC
:10567C00032A29D0FFF7BCFE2C4B19782800FFF722
:10568C00DAFC0324200070BDFFF7B2FE0324F9E717
:10569C00002C16D044602100FFF7C2FC041E08D079
:1056AC0031002800FFF7A4FEA7239B000222EA5436
:1056BC00E8E7280000F0A3FAA7239B000322EA5492
:1056CC00E0E700F09CFADDE7002C1AD041688C4230
:1056DC0027D0C9B2FFF7AFFC144B197869602800CA
:1056EC00FFF79EFC041E18D031002800FFF780FE47
:1056FC0029792800FFF79FFCA7239B000222EA547C
:10570C00C0E7A7239B000222C25444602100FFF78C
:10571C0092FC280000F073FAB4E7280000F06FFA4E
:10572C00B0E700F06CFA0024ACE7C046DC1B0020AC
:10573C0010B5CB88012B0CD1A7239B00C35CDBB22B
:10574C00022B09D9032B11D1011D012200F028FADB
:10575C0001E0FFF74DFE10BD002B07D00023836046
:10576C0001000831012200F01BFAF4E7FFF740FEBC
:10577C00F1E710B5A7239B00C35C013B022B14D8A7
:10578C00CB88022B0ED10123C360A9239B00C358E5
:10579C00002B01D00323C36001000C31022200F066
:1057AC00FFF910BDFFF724FEFBE7FFF721FEF8E73A
:1057BC0010B54B88012B04D0022B09D0FFF718FE33
:1057CC0010BDA9239B000122C25000F018FAF7E784
:1057DC008B881B0AA8229200835400F010FAEFE782
:1057EC0010B5A7239B00C35C013B022B0AD84B8846
:1057FC00012B00D010BDA9239B000022C25000F049
:10580C00FEF9F7E7FFF7F4FDF4E7000070B50B784D
:10581C0060241C40202C07D0402C05D0002C0ED02E
:10582C00FFF7E6FD002408E0B5239B00C358AE3318
:10583C009B001B589B6898470400200070BD4D7856
:10584C00092D1AD8AB000E4AD3589F46FFF7DAFD44
:10585C00F3E7FFF7CFFEF0E7FFF7FCFE0400ECE701
:10586C00FFF766FFE9E7FFF784FF2C00E5E7FFF79A
:10587C009FFFE2E7FFF7B4FFDFE7FFF7B9FDDCE7D7
:10588C006C63000870B505000C000A7860231340A7
:10589C00202B08D0402B06D0002B04D0FFF7A8FDFE
:1058AC000026300070BDA7239B00EB5C013B022B54
:1058BC0029D82179012905D921002800FFF798FD65
:1058CC000026EEE72800FFF763FC00280FD1030049
:1058DC00AE339B005B599A68002A12D0B522920015
:1058EC00A8509B68210028009847060000E003267A
:1058FC00E388002BD5D1002ED3D1280000F07FF9FE
:10590C00CFE70326F4E721002800FFF771FD0026FE
:10591C00C7E7F0B5C64600B506000D008A880F79BA
:10592C000B7860241C40202C0AD0402C08D0002C72
:10593C001BD0FFF75DFD0024200080BCB846F0BDF5
:10594C0039003000FFF726FC041E00D006E1B52319
:10595C009B00F050AE30800083599B68002BEBD03D
:10596C002900300098470400E6E74B789846012B55
:10597C0034D0032B04D0002B70D0FFF739FDDBE7BC
:10598C00A7239B00C35CDAB2022B04D0032A13D0EA
:10599C00FFF72EFDD0E7002F01D0802F04D1290076
:1059AC003000FFF725FDC7E73900FDF799FB802193
:1059BC003000FDF795FBBFE74B88002B06D1002F7D
:1059CC0004D0802F02D0CB88002B03D0300000F005
:1059DC0016F9B1E73900FDF783FBF7E7A7239B0026
:1059EC00C35CDAB2022B04D0032A13D0FFF700FDFC
:1059FC00A2E7002F01D0802F04D129003000FFF73F
:105A0C00F7FC99E73900FDF76BFB80213000FDF7BF
:105A1C0067FB91E74B88002B00D08DE77B0619D1F3
:105A2C00300000F0ECF839003000FFF7B3FB002831
:105A3C0000D081E7B5239B00F0500300AE339B00F0
:105A4C009B599B68002B00D18AE0290030009847B5
:105A5C00040071E73900FDF74CFBE1E7A7239B003D
:105A6C00C35CD9B2022B06D0032929D02900FFF739
:105A7C00BFFC444660E7002F01D0802F12D11206E4
:105A8C0015D47F233B409900C91889005131FF314F
:105A9C007118043100230B600222300000F080F8F2
:105AAC00444649E72900FFF7A3FC444644E77F231B
:105ABC003B409900C9188900103171180431E9E78D
:105ACC0051B2120622D40F223A4093009B189B002D
